:020000040800F2
:100000007806002035020008E10C0008D90C000831
:10001000DD0C0008E1030008B50D00080000000039
:10002000000000000000000000000000E90C0008D3
:10003000E503000800000000E50C0008ED0C0008D6
:100040004F0200084F0200084F0200084F0200084C
:100050004F0200084F0200084F0200084F0200083C
:100060004F0200084F0200084F0200084F0200082C
:100070004F0200084F0200084F0200084F0200081C
:100080004F0200084F0200084F0200080000000065
:100090000000000000000000000000004F02000807
:1000A0004F0200084F0200084F0200084F020008EC
:1000B0004F0200084F0200084F0200084F020008DC
:1000C0004F0200084F0200084F0200084F020008CC
:1000D0004F0200084F0200084F0200080000000015
:1000E000E90300084F0200084F020008000000006A
:1000F0000000000000000000000000004F020008A7
:10010000000000004F0200084F0200084F020008E4
:1001100000000000000000000000000000000000DF
:100120004F0200084F0200084F0200084F0200086B
:100130004F02000800000000000000000000000066
:100140000000000000000000000000004F02000856
:100150004F0200084F0200084F0200084F0200083B
:100160004F0200084F0200080000000000000000DD
:10017000000000000000000000000000000000007F
:10018000000000004F020008000000000000000016
:100190004F02000800F002F800F03CF80AA090E8D6
:1001A000000C82448344AAF10107DA4501D100F032
:1001B00031F8AFF2090EBAE80F0013F0010F18BFC3
:1001C000FB1A43F001031847E40C0000040D000083
:1001D000103A24BF78C878C1FAD8520724BF30C873
:1001E00030C144BF04680C60704700000023002445
:1001F00000250026103A28BF78C1FBD8520728BF37
:1002000030C148BF0B6070471FB500F03AFE1FBDFC
:1002100010B510BD00F0A9F81146FFF7F5FF00F08A
:10022000CBFD00F0C7F803B4FFF7F2FF03BC00F00A
:10023000CFF800000948804709480047FEE7FEE77D
:10024000FEE7FEE7FEE7FEE7FEE7FEE7FEE7FEE786
:1002500004480549054A064B70470000A10D0008F7
:100260009501000878000020780600207802002020
:100270007802002053EA020C00F069802DE9F04B6F
:100280004FF00006002B1FBFB3FA83F503FA05F405
:1002900024FA05F65E4012BF1643B2FA82F502FA5E
:1002A00005F4C5F120051EBF22FA05FC44EA0C0442
:1002B000203556EA044C4FEA144418BF641C4FF032
:1002C00000084FF00009904271EB030C39D300296C
:1002D00019BFB1FA81F701FA07F6B0FA80F700FA10
:1002E00007F6C7F120071EBF20FA07FC46EA0C06F6
:1002F0002037B6FBF4FCA7EB0507103F07F01F0BF8
:10030000CBF120062CFA06F60CFA0BFB44BFB346E1
:100310000026202FA4BF5E464FF0000B5BEA060CC0
:1003200008BF4FF0010B19EB0B0948EB0608ABFBBC
:10033000027C06FB02CC0BFB03CCC01B71EB0C0157
:10034000C1E70B46024641464846BDE8F08B13B56F
:10035000084318BF4FF0FF300146AFF30080BDE8FF
:100360001C407047704770477047754600F02CF886
:10037000AE4605006946534620F00700854618B092
:1003800020B5FFF765FFBDE820404FF000064FF0B5
:1003900000074FF000084FF0000BAC46ACE8C00976
:1003A000ACE8C009ACE8C009ACE8C00921F007011D
:1003B0008D46704710B50446AFF300802046BDE877
:1003C0001040FFF730BF00000048704710000020C9
:1003D00001491820ABBEFEE726000200704700006E
:1003E000FEE70000704700004FF4005000F008B82E
:1003F0000020C4F202002021002200F0F1B8000029
:1004000043F61441C4F201010A68024214BF0860B5
:100410007047FFF7EDBF00002DE9F04F82B000F10B
:100420003E4241F2000502F1FF77C4F202050722C5
:100430004FEAB726A84208BF0422042E38BF4FEA6D
:10044000B7224FF0010A002400274FF00008009265
:1004500008E000BF023708F10108202F04F104046E
:1004600000F0B4800E680AFA08F916EA090FF1D014
:10047000D1F804A00AF0030BABF10106012E17D846
:100480000322866802FA07FECA6826EA0E06BA4008
:10049000324382604268CAF3001522EA090205FA73
:1004A00008F54FEA480C6FEA0E062A4342600BE05B
:1004B0000322BA40D643BBF1030FBC4604D1BC466D
:1004C0004FF0030B22E000BFC2688D68324005FA8E
:1004D0000CF52A43BBF1020FC26017D16FF0030283
:1004E00002EA5802024404F01C030F25D2F820E06F
:1004F00005FA03FA0D692EEA0A0E05FA03F343EA38
:100500000E031362D1F804A00AF0030B02680BFA81
:100510000CF332401A431AF4403F4FF0010A0260D4
:1005200098D0002243F644030192C4F202031A68F1
:1005300043F6004E42F480421A601A68C4F2010E7B
:1005400002F480420192019A28F003024FF6084C0F
:100550007244CFF6FF7C52F80C3004F00C060F25E5
:10056000B540AB43009D05FA06F6334342F80C3024
:10057000DEF808204B6842EA090643F60C4CDD021F
:1005800058BF22EA0906CEF80860C4F2010CDCF874
:1005900000209D0242EA090658BF22EA0906CCF86B
:1005A0000060DEF804209D0342EA090658BF22EAF3
:1005B0000906CEF80460DEF80020DB0342EA0906F3
:1005C00058BF22EA0906CEF8006043E702B0BDE852
:1005D000F08F00000069084018BF0120704700003C
:1005E000002A08BF090481617047000040F27000D2
:1005F000C2F200000068704740F2000040F2700153
:10060000C2F20000C2F2000100780A6810440860DB
:100610007047000080B543F60040C4F20200016854
:1006200041F400710160016841F48061016001687A
:1006300041F480710160032000F086F8002000F092
:1006400005F800F027F8002080BD000070B540F2EA
:100650000006C2F2000640F208013278C2F2000140
:100660004FF47A730968B3FBF2F20446B1FBF2F17E
:10067000084600F01BFB0F2C4FF0010508D838B9D5
:100680004FF0FF3021460022002500F031F8746061
:10069000284670BD82B0002043F640010190C4F2AC
:1006A00002014A6842F480424A604A6802F4804289
:1006B0000192019A0090086840F080500860086834
:1006C00000F0805000900098072002B000F03CB885
:1006D000002848BF704700F01F01012202FA01F113
:1006E0004EF200124009CEF2000242F8201070478C
:1006F00010B54EF60C5CCEF2000CDCF80030C3F303
:10070000022E8EF00704042C28BF0424BEF103033C
:100710004FF0FF3E0EFA04F438BF0023A143994086
:100720000EFA03F39A43114300F00F02043A6244B5
:1007300009010C3200F16043B0F1FF3FC8BF03F57F
:100740006442117010BD00004EF60C51CEF2000153
:100750000A684FF6FF031A4060F30A2242F08060F5
:1007600040F0FD70086070472DE9F041002800F06E
:100770008B8043F60808C4F202080446D8F8F80350
:100780000D4600F00700884207D288F8F853D8F8E1
:10079000F80300F00700A84276D12068810717D53A
:1007A000410705D5D8F8001041F4E051C8F8001011
:1007B000010705D5D8F8001041F46041C8F80010D1
:1007C000D8F80010A26821F0F0011143C8F8001019
:1007D000C0073FD1D8F8F80300F00700A84207D9B6
:1007E00088F8F853D8F8F80300F00700A8424BD176
:1007F0002068410707D5D8F80010E26821F4E051DD
:100800001143C8F80010000708D5D8F80000216986
:1008100020F4604040EAC100C8F8000000F054F83D
:10082000D8F8001040F69C62C1F30311C0F6000234
:10083000515C40F2080220FA01F140F20400C2F2D9
:1008400000000068C2F200021160FFF7FFFE002006
:10085000BDE8F0816068811E022907D258F8081CA3
:1008600089015CBF0120BDE8F08111E0012807D1BA
:1008700058F8081C89035CBF0120BDE8F08107E03F
:1008800058F8081C890703D40120BDE8F08100BF97
:10089000D8F8001021F003010843C8F80000FFF762
:1008A000A5FE064641F28837D8F80000616800F0DE
:1008B0000C00B0EB810F8DD0FFF798FE801BB84283
:1008C000F2D90320BDE8F08110B543F60404C4F268
:1008D0000204606800F00C0142F200400829C0F2F6
:1008E000F40007D0042918BF10BD41F20020C0F267
:1008F0007A0010BD216801F03F0221682368490297
:10090000C3F3881106D4A1FB00010023FFF7B2FC5A
:1009100007E000BF41F20020C0F27A004843B0FB7C
:10092000F2F021680222C1F3014102EB4101B0FB68
:10093000F1F010BD2DE9F04182B000286AD00446E4
:10094000007843F60006C007C4F202060BD0B06878
:1009500000F00C00042840F0A1803068800302D52C
:100960006068002856D0207880071AD5B06810F04B
:100970000C0F09D0B06800F00C00082840F0A880E7
:100980007068400200F1A4803068800702D5E068FA
:1009900001283FD13068216920F0F80040EAC10009
:1009A00030602078000739D4207840074ED4A569FC
:1009B0005DB3B06800F00C00082840F0BD80012D48
:1009C00028D07068E16900F480028A4222D1216A4D
:1009D00000F03F028A421DD147F6C071626A0140B1
:1009E000B1EB821F16D1A26A0023CFF6FF7303EB8F
:1009F000C23200F440316FF30F0291420AD1E16A32
:100A000000F07060B0EB016F04D1002002B0BDE8CF
:100A1000F08100BF012002B0BDE8F08160690028CC
:100A200040F20000C4F2472076D00121C0F8801EB9
:100A3000FFF7DCFD054600BF706F8007B4D4FFF7F9
:100A4000D5FD401B0228F7D9DDE000BF306C10F067
:100A500080580AD100200190306C40F08050306402
:100A6000306C00F080500190019847F20007C4F20A
:100A700000073868C00541D4386840F48070386099
:100A8000FFF7B4FD054600BF3868C00536D4FFF750
:100A9000ADFD401B0228F7D9B5E000BFB06800F0FB
:100AA0000C00082803D1706840023FF556AF60681B
:100AB000B0F5803F07D0B0F5A02F40F08D803068B2
:100AC00040F480203060306840F4803030608DE049
:100AD000E068002852D00020C4F2472001210160C4
:100AE000FFF784FD054600BF306880073FF552AF31
:100AF000FFF77CFD401B0228F6D984E0A06801289E
:100B000005D005284ED1306F40F004003067306FBB
:100B100040F0010030674FE00021C0F8801EFFF771
:100B200065FD0546706F80077FF53EAFFFF75EFD00
:100B3000401B0228F6D966E00027C4F247270020B0
:100B40003866FFF753FD022D05460BD13068800152
:100B50005ED5FFF74BFD401B02284FF00300F5D98F
:100B600054E700BF306880017FF54FAFFFF73EFDCF
:100B7000401B02284FF00300F4D947E70020C4F2DD
:100B8000472000210160FFF731FD054630688007EE
:100B90007FF507AFFFF72AFD401B02284FF0030047
:100BA000F4D933E7316F002821F001013167316F4B
:100BB00021F0040131674DD0FFF718FD054641F2E1
:100BC000883700BF306F800756D4FFF70FFD401BFA
:100BD000B842F7D917E000BF3168002821F480310E
:100BE0003160316821F4802131604FD0FFF7FEFC85
:100BF000054600BF306880033FF5B5AEFFF7F6FC51
:100C0000401B6428F6D9032002B0BDE8F08100BF84
:100C100004F11C052FCD08430021CFF6FF7140EAF7
:100C2000821001EBC3316FF30F0140EA0560084306
:100C3000706001203866FFF7D9FC044630688001F7
:100C40003FF5E3AEFFF7D2FC001B02284FF0030094
:100C5000F4D9DBE6FFF7CAFC054641F2883700BF4E
:100C6000306F800708D5FFF7C1FC401BB8424FF03A
:100C70000300F5D9CAE600BFB8F1000F7FF497AEC4
:100C8000306C20F08050306491E600BFFFF7AEFC7E
:100C9000054600BF306880037FF565AEFFF7A6FC10
:100CA000401B64284FF00300F4D9AFE6411E00203A
:100CB000B0EB116F1CBF012070474EF21002CEF254
:100CC000000251604EF62351CEF20001F0230B706A
:100CD0000721906011607047FEE70000FEE700000A
:100CE000FEE700007047000070470000FFF784BC7B
:100CF000B0B592B0002443F640000B94CDE909440E
:100D0000CDE907440594CDE90344CDE901440094BD
:100D1000C4F202000168022541F0805101600068C0
:100D200000F080500090009847F200000094C4F258
:100D30000000016865F38F310160006800F44040F5
:100D4000009000980120099010200A9008200E9031
:100D50004020CDE90F050720119006A80695CDE9A2
:100D60000C54FFF7E7FD28B1EFF3108072B600BF17
:100D7000FEE700BF0F20CDE90105C02003904FF42E
:100D80008050CDE9040401A80021FFF7EDFC28B153
:100D9000EFF3108072B600BFFEE700BF12B0B0BD27
:100DA0004EF68850CEF20000016841F470010160F7
:100DB00070470000FEE7000086B00024C4F2020481
:100DC000FFF728FCFFF794FF002743F63000CDE93A
:100DD00004770097C4F202000168002241F0040188
:100DE000016001684FF0200801F0040100910099B2
:100DF0000097016841F080010160016801F0800105
:100E0000009100990097016841F0010101600068BC
:100E1000202100F00100009000982046FFF7E0FB41
:100E20004FF4005001904FF488100290022004F516
:100E3000006501AE039028463146FFF7EDFA012028
:100E4000CDE9020720463146CDF804800497FFF72C
:100E5000E3FA282000210022FFF74AFC2820FFF7B0
:100E600037FC00BF28464FF40051FFF7B3FB0246A2
:100E7000002820464FF0200118BF0122FFF7B0FBE9
:100E8000F0E7F1EE100A4FF6FF71C0F2C03120EA30
:100E9000010040F04070E1EE100A704700000000D1
:100EA000000000000102030406070809D00E000834
:100EB0000000002010000000D0010008E00E000833
:100EC0001000002068060000EC010008000000008F
:100ED00001000000100000000024F40000000000E9
:040000050800019559
:00000001FF
