:020000040800F2
:10000000C0060020350200088D1100088511000887
:1000100089110008E10300085D12000800000000DB
:100020000000000000000000000000009511000822
:10003000E503000800000000911100089911000874
:100040004F0200084F0200084F0200084F0200084C
:100050004F0200084F0200084F0200084F0200083C
:100060004F0200084F0200084F0200084F0200082C
:100070004F0200084F0200084F0200084F0200081C
:100080004F0200084F0200084F0200080000000065
:100090000000000000000000000000004F02000807
:1000A0004F0200084F0200084F0200084F020008EC
:1000B0004F0200084F0200084F0200084F020008DC
:1000C0004F0200084F0200084F0200084F020008CC
:1000D0004F0200084F0200084F0200080000000015
:1000E0004F0200084F0200084F0200080000000005
:1000F0000000000000000000000000004F020008A7
:10010000000000004F0200084F0200084F020008E4
:1001100000000000000000000000000000000000DF
:100120004F0200084F0200084F0200084F0200086B
:100130004F02000800000000000000000000000066
:100140000000000000000000000000004F02000856
:100150004F0200084F0200084F0200084F0200083B
:100160004F0200084F0200080000000000000000DD
:10017000000000000000000000000000000000007F
:10018000000000004F020008000000000000000016
:100190004F02000800F002F800F03CF80AA090E8D6
:1001A000000C82448344AAF10107DA4501D100F032
:1001B00031F8AFF2090EBAE80F0013F0010F18BFC3
:1001C000FB1A43F00103184784110000A41100003A
:1001D000103A24BF78C878C1FAD8520724BF30C873
:1001E00030C144BF04680C60704700000023002445
:1001F00000250026103A28BF78C1FBD8520728BF37
:1002000030C148BF0B6070471FB501F089F81FBDB2
:1002100010B510BD00F0A9F81146FFF7F5FF01F089
:100220001FF800F0C7F803B4FFF7F2FF03BC00F0BB
:10023000CFF800000948804709480047FEE7FEE77D
:10024000FEE7FEE7FEE7FEE7FEE7FEE7FEE7FEE786
:1002500004480549054A064B70470000491200084A
:1002600095010008C0000020C0060020C002002048
:10027000C002002053EA020C00F069802DE9F04B27
:100280004FF00006002B1FBFB3FA83F503FA05F405
:1002900024FA05F65E4012BF1643B2FA82F502FA5E
:1002A00005F4C5F120051EBF22FA05FC44EA0C0442
:1002B000203556EA044C4FEA144418BF641C4FF032
:1002C00000084FF00009904271EB030C39D300296C
:1002D00019BFB1FA81F701FA07F6B0FA80F700FA10
:1002E00007F6C7F120071EBF20FA07FC46EA0C06F6
:1002F0002037B6FBF4FCA7EB0507103F07F01F0BF8
:10030000CBF120062CFA06F60CFA0BFB44BFB346E1
:100310000026202FA4BF5E464FF0000B5BEA060CC0
:1003200008BF4FF0010B19EB0B0948EB0608ABFBBC
:10033000027C06FB02CC0BFB03CCC01B71EB0C0157
:10034000C1E70B46024641464846BDE8F08B13B56F
:10035000084318BF4FF0FF300146AFF30080BDE8FF
:100360001C407047704770477047754600F02CF886
:10037000AE4605006946534620F00700854618B092
:1003800020B5FFF765FFBDE820404FF000064FF0B5
:1003900000074FF000084FF0000BAC46ACE8C00976
:1003A000ACE8C009ACE8C009ACE8C00921F007011D
:1003B0008D46704710B50446AFF300802046BDE877
:1003C0001040FFF730BF00000048704710000020C9
:1003D00001491820ABBEFEE726000200704700006E
:1003E000FEE700007047000070B581B00022009267
:1003F00090F83C20012A03D10221084601B070BDCB
:10040000D1F800E00122BEF10A0F80F83C200BD3A6
:100410001FFA8EF25200066812FA8EF2A2F11E0343
:1004200006F10C0205E000BF06680EEB4E0306F174
:1004300010024FF0070C15680CFA03F4A543156081
:100440008D68146805FA03F323431360496806298D
:1004500006D801EB8101053906F134020AE000BF3C
:100460000C2901EB810187BF413906F12C022339A8
:1004700006F130021F2314688B4024EA030342F282
:10048000043C1360C4F2010C1FFA8EF3146803FAE3
:1004900001F1ACF5417321439E4211603ED1BEF1A2
:1004A000120F07D1DCF8001041F48001CCF80010E5
:1004B00034E000BF2EF0010110292FD1DCF800102C
:1004C000BEF1100F41F40001CCF8001026D140F22B
:1004D0000801C2F2000109684DF68362C4F21B32C2
:1004E000A1FB0212910C01EB8101490000910099DE
:1004F000A1B1009901390091009979B100990139B0
:100500000091009951B1009901390091009929B1E8
:1005100000990139009100990029EAD1002180F861
:100520003C10084601B070BD0068C06C7047000008
:10053000002804BF0120704710B50446006C002855
:100540003ED0206CC00645D4206C41F20211884395
:10055000023042F204312064C4F20101086820F440
:10056000403008600A6894E809101A43D4F810E093
:100570000A604168012321F4807141604168C0F63E
:10058000007341EA0E214160416821F040714160F1
:10059000416841EA0C014160816821F40061816099
:1005A000E168826811438160A16A8268994222F001
:1005B00070628260826813D122F0405119E000BF5E
:1005C000204600F065F80020606484F83C00206C50
:1005D000C006B9D50120002184F83C1010BD00BF31
:1005E00011438160816821F040518160E16A826835
:1005F00011438160816821F0020181608168227E5F
:1006000094F8203041EA42018160416883B141F4AD
:100610000061416041684EF2000221F46041416096
:10062000616ACFF6FF72436802EB4131194301E082
:1006300021F400614160C16A40F2000C21F47001B4
:10064000C162E2696169CFF6F07CC36A0CEB0252C9
:100650001A43C262826822F40072826094F83020E9
:10066000836843EA42228260826822F48062826068
:10067000826842EA8121816000206064216C01224D
:1006800062F301012164002184F83C1010BD0000D8
:1006900080B586B042F200010068C4F20101002278
:1006A00088420592049201D006B080BD43F6300026
:1006B0000092C4F20200436943F4807343614369CA
:1006C00003F480730093009B0092036843F00103DE
:1006D0000360006800F00100009000980120019084
:1006E0000320CDE9020201F5604001A900F006F9FE
:1006F00006B080BD70B5044600680D46826852059C
:1007000044BF80685FEAC05038D400F0D5F9216852
:100710000A68920749D40646681C3CD0DDB90868CF
:10072000800721D5086880073FD4086880071BD55B
:100730000868800739D40868800715D508688007DD
:1007400033D4086880070FD508688007E7D52CE008
:100750000868800729D400F0AFF9801B2168A842FF
:10076000F6D908688007F3D4206C40F004002064B8
:10077000002084F83C00032070BD00BF206C40F0D6
:1007800020002064002084F83C00012070BD00BFE0
:100790000868800709D40868800706D408688007BD
:1007A0005CBF08685FEA8070F2D56FF012000860E5
:1007B000206C40F400702064886810F0405F01D124
:1007C000207E08B1002070BDC86A10F4700F02D0FE
:1007D00088684005F6D4206C20F480702064206C7A
:1007E000C004EFD4206C40F001002064002070BDF4
:1007F00010B581B00021009190F83C10012903D17F
:10080000022001B010BD00BF0468012180F83C1037
:10081000214651F8083FDB0729D10B684DF683626A
:1008200043F001030B6040F20803C2F200031B68AF
:10083000C4F21B32A3FB02239A0C02EB4202009289
:10084000009AA2B1009A013A0092009A7AB1009AF5
:10085000013A0092009A52B1009A013A0092009A2D
:100860002AB1009A013A0092009A002AEAD10A6855
:10087000036CD2070AD143F01001016400F1440176
:1008800001200A681043086034E000BF40F20172A2
:1008900023EA020202F5807202646268520504D5FE
:1008A000026C012363F30D320264026C4FF0000C02
:1008B0000023D20444BF426C22F0060342F2000E31
:1008C000436480F83CC06FF02200C4F2010E206047
:1008D000DEF80403C00609D074450BD1DEF8080029
:1008E00010F0405F06D14FF08040CAE7086810F072
:1008F000405FF8D0002001B010BD00002DE9F04F9E
:1009000082B000F13E4241F2000502F1FF77C4F2ED
:10091000020507224FEAB726A84208BF0422042E88
:1009200038BF4FEAB7224FF0010A002400274FF0EA
:100930000008009208E000BF023708F10108202FEC
:1009400004F1040400F0B4800E680AFA08F916EA0B
:10095000090FF1D0D1F804A00AF0030BABF10106A6
:10096000012E17D80322866802FA07FECA6826EA13
:100970000E06BA40324382604268CAF3001522EA8A
:10098000090205FA08F54FEA480C6FEA0E062A43F9
:1009900042600BE00322BA40D643BBF1030FBC46D2
:1009A00004D1BC464FF0030B22E000BFC2688D6843
:1009B000324005FA0CF52A43BBF1020FC26017D191
:1009C0006FF0030202EA5802024404F01C030F25F0
:1009D000D2F820E005FA03FA0D692EEA0A0E05FAAC
:1009E00003F343EA0E031362D1F804A00AF0030BE9
:1009F00002680BFA0CF332401A431AF4403F4FF0EE
:100A0000010A026098D0002243F644030192C4F226
:100A100002031A6843F6004E42F480421A601A68D4
:100A2000C4F2010E02F480420192019A28F00302FE
:100A30004FF6084C7244CFF6FF7C52F80C3004F0AD
:100A40000C060F25B540AB43009D05FA06F633436F
:100A500042F80C30DEF808204B6842EA090643F6FB
:100A60000C4CDD0258BF22EA0906CEF80860C4F239
:100A7000010CDCF800209D0242EA090658BF22EA78
:100A80000906CCF80060DEF804209D0342EA09065E
:100A900058BF22EA0906CEF80460DEF80020DB0326
:100AA00042EA090658BF22EA0906CEF8006043E789
:100AB00002B0BDE8F08F000040F2BC00C2F20000BE
:100AC0000068704740F2000040F2BC01C2F2000032
:100AD000C2F2000100780A68104408607047000004
:100AE00080B543F60040C4F20200016841F4007191
:100AF0000160016841F480610160016841F4807126
:100B00000160032000F076F8002000F005F800F006
:100B100027F8002080BD000070B540F20006C2F248
:100B2000000640F208013278C2F200014FF47A73F5
:100B30000968B3FBF2F20446B1FBF2F1084600F09B
:100B40000BFB0F2C4FF0010508D838B94FF0FF30E0
:100B500021460022002500F021F87460284670BD6F
:100B600082B0002043F640010190C4F202014A68BD
:100B700042F480424A604A6802F480420192019A3B
:100B80000090086840F080500860086800F08050CD
:100B900000900098072002B000F02CB810B54EF677
:100BA0000C5CCEF2000CDCF80030C3F3022E8EF0A9
:100BB0000704042C28BF0424BEF103034FF0FF3EBA
:100BC0000EFA04F438BF0023A14399400EFA03F350
:100BD0009A43114300F00F02043A624409010C32B7
:100BE00000F16043B0F1FF3FC8BF03F564421170EC
:100BF00010BD00004EF60C51CEF200010A684FF60F
:100C0000FF031A4060F30A2242F0806040F0FD705A
:100C1000086070472DE9F041002800F08B8043F612
:100C20000808C4F202080446D8F8F8030D4600F09C
:100C30000700884207D288F8F853D8F8F80300F084
:100C40000700A84276D12068810717D5410705D54E
:100C5000D8F8001041F4E051C8F80010010705D59C
:100C6000D8F8001041F46041C8F80010D8F800101E
:100C7000A26821F0F0011143C8F80010C0073FD16D
:100C8000D8F8F80300F00700A84207D988F8F8530D
:100C9000D8F8F80300F00700A8424BD120684107BC
:100CA00007D5D8F80010E26821F4E0511143C8F8E4
:100CB0000010000708D5D8F80000216920F4604032
:100CC00040EAC100C8F8000000F054F8D8F800105D
:100CD00041F23A32C1F30311C0F60002515C40F216
:100CE000080220FA01F140F20400C2F2000000689C
:100CF000C2F200021160FFF70FFF0020BDE8F08193
:100D00006068811E022907D258F8081C89015CBF5F
:100D10000120BDE8F08111E0012807D158F8081C36
:100D200089035CBF0120BDE8F08107E058F8081C8A
:100D3000890703D40120BDE8F08100BFD8F8001076
:100D400021F003010843C8F80000FFF7B5FE06468E
:100D500041F28837D8F80000616800F00C00B0EB71
:100D6000810F8DD0FFF7A8FE801BB842F2D9032077
:100D7000BDE8F08110B543F60404C4F202046068D3
:100D800000F00C0142F200400829C0F2F40007D044
:100D9000042918BF10BD41F20020C0F27A0010BD36
:100DA000216801F03F02216823684902C3F38811DA
:100DB00006D4A1FB00010023FFF75CFA07E000BFA7
:100DC00041F20020C0F27A004843B0FBF2F0216803
:100DD0000222C1F3014102EB4101B0FBF1F010BD71
:100DE0002DE9F04182B000286AD00446007843F62D
:100DF0000006C007C4F202060BD0B06800F00C0079
:100E0000042840F0A1803068800302D56068002883
:100E100056D0207880071AD5B06810F00C0F09D092
:100E2000B06800F00C00082840F0A880706840020C
:100E300000F1A4803068800702D5E06801283FD126
:100E40003068216920F0F80040EAC1003060207865
:100E5000000739D4207840074ED4A5695DB3B06847
:100E600000F00C00082840F0BD80012D28D07068EB
:100E7000E16900F480028A4222D1216A00F03F0237
:100E80008A421DD147F6C071626A0140B1EB821FF0
:100E900016D1A26A0023CFF6FF7303EBC23200F42F
:100EA00040316FF30F0291420AD1E16A00F07060A5
:100EB000B0EB016F04D1002002B0BDE8F08100BFAB
:100EC000012002B0BDE8F0816069002840F2000016
:100ED000C4F2472076D00121C0F8801EFFF7ECFD58
:100EE000054600BF706F8007B4D4FFF7E5FD401BD7
:100EF0000228F7D9DDE000BF306C10F080580AD12D
:100F000000200190306C40F080503064306C00F074
:100F100080500190019847F20007C4F2000738683A
:100F2000C00541D4386840F480703860FFF7C4FDD4
:100F3000054600BF3868C00536D4FFF7BDFD401B2D
:100F40000228F7D9B5E000BFB06800F00C0008280F
:100F500003D1706840023FF556AF6068B0F5803F3E
:100F600007D0B0F5A02F40F08D80306840F480208D
:100F70003060306840F4803030608DE0E0680028F8
:100F800052D00020C4F2472001210160FFF794FDF8
:100F9000054600BF306880073FF552AFFFF78CFD74
:100FA000401B0228F6D984E0A068012805D0052856
:100FB0004ED1306F40F004003067306F40F00100D8
:100FC00030674FE00021C0F8801EFFF775FD054631
:100FD000706F80077FF53EAFFFF76EFD401B022864
:100FE000F6D966E00027C4F2472700203866FFF7ED
:100FF00063FD022D05460BD1306880015ED5FFF7F9
:101000005BFD401B02284FF00300F5D954E700BFF9
:10101000306880017FF54FAFFFF74EFD401B02287F
:101020004FF00300F4D947E70020C4F24720002125
:101030000160FFF741FD0546306880077FF507AF87
:10104000FFF73AFD401B02284FF00300F4D933E7C5
:10105000316F002821F001013167316F21F0040167
:1010600031674DD0FFF728FD054641F2883700BFB4
:10107000306F800756D4FFF71FFD401BB842F7D9E9
:1010800017E000BF3168002821F4803131603168F9
:1010900021F4802131604FD0FFF70EFD054600BFDF
:1010A000306880033FF5B5AEFFF706FD401B6428AE
:1010B000F6D9032002B0BDE8F08100BF04F11C05A1
:1010C0002FCD08430021CFF6FF7140EA821001EBDB
:1010D000C3316FF30F0140EA0560084370600120DF
:1010E0003866FFF7E9FC0446306880013FF5E3AE5F
:1010F000FFF7E2FC001B02284FF00300F4D9DBE607
:10110000FFF7DAFC054641F2883700BF306F8007F1
:1011100008D5FFF7D1FC401BB8424FF00300F5D9CA
:10112000CAE600BFB8F1000F7FF497AE306C20F034
:101130008050306491E600BFFFF7BEFC054600BF5B
:10114000306880037FF565AEFFF7B6FC401B64286E
:101150004FF00300F4D9AFE6411E0020B0EB116F51
:101160001CBF012070474EF21002CEF20002516007
:101170004EF62351CEF20001F0230B700721906050
:1011800011607047FEE70000FEE70000FEE7000088
:101190007047000070470000FFF794BCB0B592B0F4
:1011A000002443F640000B94CDE90944CDE90744FF
:1011B0000594CDE90344CDE901440094C4F2020052
:1011C0000168022541F080510160006800F0805004
:1011D0000090009847F200000094C4F200000168FB
:1011E00065F38F310160006800F440400090009882
:1011F0000120099010200A900E904FF4A8700F90D3
:10120000042010900720119006A80695CDE90C54F3
:10121000FFF7E6FD20B1EFF3108072B6FEE700BFE6
:101220000F20CDE901054FF48050CDE9040401A859
:1012300002210394FFF7EEFC20B1EFF3108072B6A9
:10124000FEE700BF12B0B0BD4EF68850CEF20000EF
:10125000016841F47001016070470000FEE7000082
:1012600084B0FFF73DFCFFF799FF002443F6300000
:101270000094C4F20200016840F2700541F00101DF
:1012800001600068C2F2000500F0010000900098C3
:1012900042F20001C4F201012846012240F8041F75
:1012A0004FF48031C0F6007201260394047680F872
:1012B0002040C0E90A24C66180F83040C0E901142A
:1012C000C0E903444661FFF733F928B1EFF310801A
:1012D00072B600BFFEE700BFCDE9004602942C1DA8
:1012E00069462046FFF780F820B1EFF3108072B610
:1012F000FEE700BF2046FFF77BFA20460121FFF7FB
:10130000F9F92046FFF710F92046FFF771FA204659
:101310000121FFF7EFF92046FFF706F92860F3E710
:10132000F1EE100A4FF6FF71C0F2C03120EA010061
:1013300040F04070E1EE100A70470000000000002D
:1013400000000102030406070809000070130008EA
:101350000000002010000000D001000880130008E9
:1013600010000020B0060000EC01000800000000A2
:1013700001000000100000000024F4000000000044
:040000050800019559
:00000001FF
